:100000000C945F000C9487000C9487000C9487007C
:100010000C9487000C9487000C9487000C94DB02EE
:100020000C9487000C9487000C9487000C94870034
:100030000C9487000C9487000C9487000C94870024
:100040000C9491020C9487000C945D030C9437037C
:100050000C9487000C9487000C9487000C94870004
:100060000C9487000C948700000000080002010037
:100070000003040700000000000000000200000070
:1000800000250028002B0000000000240027002A83
:100090000004040404040404040202020202020331
:1000A000030303030301020408102040800102043B
:1000B000081020010204081020008F0341061124BB
:1000C0001FBECFEFD8E0DEBFCDBF21E0A0E2B1E0A0
:1000D00001C01D92A13EB207E1F711E0A0E0B1E03E
:1000E000EEE1F1E102C005900D92A032B107D9F71F
:1000F00010E0CEE5D0E004C02197FE010E94810609
:10010000CD35D107C9F70E9405040C9482080C94E0
:100110000000E3EBF0E02491EFE9F0E08491882324
:1001200099F090E0880F991FFC01E957FF4FA591C6
:10013000B491FC01E358FF4F859194918FB7F894E7
:10014000EC91E22BEC938FBF0895089590910001FC
:1001500089130DC0ECE7F0E0E4919FEF909300016C
:10016000E13009F431C068F1E23009F433C090E0C5
:10017000FC01E859FF4F2491FC01EB55FF4F3491EE
:10018000FC01EF56FF4FE491EE23D1F0222351F012
:10019000233009F43AC078F5213009F43CC022300C
:1001A00009F43DC0F0E0EE0FFF1FE358FF4FA591AB
:1001B000B4918FB7F894EC9130953E233C938FBF68
:1001C000089510926E00D3CF90916F009D7F909311
:1001D0006F00CDCF909170009D7F9093700091E063
:1001E0009093B0009091B100987F94609093B1008B
:1001F0001092B300BCCF2730A9F02830C9F02430CA
:1002000089F6809180008F7D03C0809180008F7778
:1002100080938000C7CF84B58F7784BDC3CF84B56A
:100220008F7DFBCF8091B0008F778093B000BACFE5
:100230008091B0008F7DF9CFAF92BF92CF92DF92C5
:10024000EF92FF920F931F93CF93DF936C017B018B
:100250008B01040F151FEB015E01AE18BF08C0171C
:10026000D10759F06991D601ED91FC910190F0818F
:10027000E02DC6010995892B79F7C501DF91CF9152
:100280001F910F91FF90EF90DF90CF90BF90AF90B4
:100290000895FC01538D448D252F30E0842F90E08C
:1002A000821B930B541710F0CF9608950197089571
:1002B000FC01918D828D981761F0A28DAE0FBF2F3A
:1002C000B11D5D968C91928D9F5F9F73928F90E090
:1002D00008958FEF9FEF08952FB7F894809136011E
:1002E00090913701A0913801B09139012FBF8093CF
:1002F000420190934301A0934401B09345018AE3E6
:1003000091E00E94580197FF26C02FB7F894809182
:10031000360190913701A0913801B09139012FBF7A
:100320004091420150914301609144017091450117
:10033000841B950BA60BB70B40913E0150913F01DA
:10034000609140017091410184179507A607B70796
:10035000B0F28FEF9FEF0895FC01918D828D981779
:1003600031F0828DE80FF11D858D90E008958FEFBB
:100370009FEF0895FC01918D228D892F90E0805C84
:100380009F4F821B91098F73992708958AE391E00B
:100390000E94BA0121E0892B09F420E0822F089500
:1003A00080E090E0892B29F00E94C60181110C9415
:1003B00000000895FC01A48DA80FB92FB11DA35A08
:1003C000BF4F2C91848D90E001968F739927848F75
:1003D000A689B7892C93A089B1898C918370806498
:1003E0008C93938D848D981306C00288F389E02D39
:1003F00080818F7D80830895EF92FF920F931F93EA
:10040000CF93DF93EC0181E0888F9B8D8C8D9813C7
:100410001AC0E889F989808185FF15C09FB7F894D3
:10042000EE89FF896083E889F9898081837080641F
:1004300080839FBF81E090E0DF91CF911F910F916A
:10044000FF90EF900895F62E0B8D10E00F5F1F4F79
:100450000F731127E02E8C8D8E110CC00FB607FC88
:10046000FACFE889F989808185FFF5CFCE010E9416
:10047000DA01F1CFEB8DEC0FFD2FF11DE35AFF4FA9
:10048000F0829FB7F8940B8FEA89FB8980818062A4
:10049000CFCFCF93DF93EC01888D8823B9F0AA8961
:1004A000BB89E889F9898C9185FD03C0808186FD2F
:1004B0000DC00FB607FCF7CF8C9185FFF2CF80817E
:1004C00085FFEDCFCE010E94DA01E9CFDF91CF9118
:1004D00008950F931F93CF93DF93EC018881998147
:1004E000009759F02A813B812617370730F081E0C9
:1004F000DF91CF911F910F9108958B016F5F7F4F17
:100500000E94AC07009759F0998388831B830A8364
:100510002C813D81232B59F7FC011082E8CF80E02C
:10052000E7CF1F920F920FB60F9211242F933F9394
:100530008F939F93AF93BF93809136019091370132
:10054000A0913801B09139013091350123E0230F9A
:100550002D3758F50196A11DB11D209335018093CB
:10056000360190933701A0933801B09339018091FF
:10057000310190913201A0913301B0913401019683
:10058000A11DB11D8093310190933201A0933301DD
:10059000B0933401BF91AF919F918F913F912F9173
:1005A0000F900FBE0F901F90189526E8230F02960C
:1005B000A11DB11DD2CF1F920F920FB60F92112421
:1005C0002F933F934F935F936F937F938F939F935B
:1005D000AF93BF93EF93FF938091250190912601F4
:1005E000A0912701B0912801892B8A2B8B2BD1F167
:1005F00090912001E0912101F091220180818927D1
:1006000080838091250190912601A0912701B091CE
:100610002801181619061A061B069CF4809125015C
:1006200090912601A0912701B09128010197A1097D
:10063000B1098093250190932601A0932701B093DF
:100640002801FF91EF91BF91AF919F918F917F9181
:100650006F915F914F913F912F910F900FBE0F902F
:100660001F901895809100010E94A600EACF1F926A
:100670000F920FB60F9211242F933F934F935F93D6
:100680006F937F938F939F93AF93BF93EF93FF935A
:100690008AE391E00E94DA01FF91EF91BF91AF915F
:1006A0009F918F917F916F915F914F913F912F918A
:1006B0000F900FBE0F901F9018951F920F920FB6BC
:1006C0000F9211242F938F939F93EF93FF93E091B9
:1006D0004A01F0914B018081E0915001F09151016C
:1006E00082FD1BC09081809153018F5F8F73209199
:1006F0005401821741F0E0915301F0E0E65CFE4FB7
:10070000958F80935301FF91EF919F918F912F913E
:100710000F900FBE0F901F9018958081F4CF10920C
:100720003D0110923C0188EE93E0A0E0B0E08093A0
:100730003E0190933F01A0934001B09341018BE0B3
:1007400091E090933B0180933A0185EC90E0909387
:1007500047018093460184EC90E090934901809397
:10076000480180EC90E090934B0180934A0181EC2A
:1007700090E090934D0180934C0182EC90E0909337
:100780004F0180934E0186EC90E09093510180934D
:100790005001109253011092540110925501109281
:1007A00056011092D8011092D7011092DA011092DE
:1007B000D9011092DC011092DB0170E060E087ED5E
:1007C00091E00E9469022091D7013091D8018111F6
:1007D00013C02115310519F0C9010E942307109299
:1007E000D8011092D7011092DC011092DB01109217
:1007F000DA011092D90108951092DC011092DB0108
:100800006FE171E0C9010C947B08CF93DF93CDB702
:10081000DEB728970FB6F894DEBF0FBECDBF789431
:1008200084B5826084BD84B5816084BD85B58260F5
:1008300085BD85B5816085BD80916E0081608093A6
:100840006E0010928100809181008260809381000F
:10085000809181008160809381008091800081601F
:10086000809380008091B10084608093B10080917A
:10087000B00081608093B00080917A0084608093A2
:100880007A0080917A00826080937A0080917A0069
:10089000816080937A0080917A00806880937A00EA
:1008A0001092C100E0914A01F0914B0182E08083F7
:1008B000E0914601F09147011082E0914801F091EA
:1008C00049018FEC808310925201E0914E01F0912A
:1008D0004F0186E08083E0914C01F0914D018081D1
:1008E00080618083E0914C01F0914D0180818860AE
:1008F0008083E0914C01F0914D018081806880837C
:10090000E0914C01F0914D0180818F7D808382E3E5
:1009100090E0A0E0B0E080933E0190933F01A0936F
:100920004001B09341010E9489005FE7852E5EE39C
:10093000952E6CE7A62E60E0B62E7FE9E72E70E0DC
:10094000F72E44244A94542C320133EBC32E30E06A
:10095000D32E40E0242E40E0342E8AE391E00E9422
:10096000BA01892B09F476C01A8219821C821B8273
:100970001E821D8270E060E0CE0101960E94690235
:1009800029813A8181112BC02115310519F0C90146
:100990000E9423071A8219821E821D821C821B82DA
:1009A0000E946C0197FD23C08F8318860D811E81E4
:1009B0000F5F1F4FB801CE0101960E946902882384
:1009C00079F329813A818D819E81BE01695F7F4FD4
:1009D000820F931F0E947B081E830D83E1CF1E822E
:1009E0001D826FE171E0C9010E947B08D9CF80911F
:1009F000D7019091D801009709F469C069817A8183
:100A00006115710509F461C04091D9015091DA0175
:100A10002D813E814217530708F457C00E947B087E
:100A20008D819E819093DC018093DB011E821D826B
:100A300089819A81009711F00E9423074091DB0180
:100A40005091DC016091D7017091D8018AE391E067
:100A50000E941C018091DB019091DC01892B09F43B
:100A6000C9C069E171E08091D7019091D8010E94DD
:100A70007208892B09F0B1C0809100018E3009F015
:100A80003DC0F501149117FDA8C00E9489001123F3
:100A900009F462C0123009F4DBC0113009F480C0DF
:100AA000123009F4DDC0111192C08FE787BD40926A
:100AB0002D0150922E0160922F0170923001809191
:100AC0006E00826080936E0082C00E94230789813D
:100AD0009A819093D8018093D7018B819C819093C8
:100AE000DA018093D9018D819E819093DC018093FE
:100AF000DB011A8219821C821B8298CF8F3F09F07A
:100B00006CC08EE080930001F50114911F3F09F441
:100B100064C0113039F140F0123009F477C017FD8C
:100B20005CC00E948900B6CF14BC15BC84B582603D
:100B300084BD85B5816085BDF7018491E82FF0E023
:100B4000EE0FFF1FE358FF4F85919491F6018491BA
:100B5000809324010E94890085B5887F836085BDCC
:100B600089EFA4CF109280001092810080918100C3
:100B700088608093810080918100816080938100F2
:100B8000F7018491E82FF0E0EE0FFF1FE358FF4FCD
:100B900085919491F6018491809323010E948900AC
:100BA00080918100887F816080938100909289008C
:100BB000809288004092290150922A0160922B0174
:100BC00070922C0180916F00826080936F00809101
:100BD000DB019091DC01892B69F06CE171E080917F
:100BE000D7019091D8010E947208892B19F48EE0E8
:100BF0000E94A6002114310409F4AFCE0E94C60160
:100C0000882309F4A2CE0E9400009FCE1092B0006B
:100C10001092B1008091B00082608093B00080910A
:100C2000B10081608093B100F7018491E82FF0E07A
:100C3000EE0FFF1FE358FF4F85919491909322018F
:100C400080932101F6018491809320010E94890004
:100C50008091B100887F84608093B10089EF01C0EA
:100C60008FE78093B3004092250150922601609255
:100C7000270170922801809170008260809370003B
:100C8000A6CF8091D7019091D801009711F00C94D4
:100C9000230708952F923F924F925F926F927F9217
:100CA0008F929F92AF92BF92CF92DF92EF92FF927C
:100CB0000F931F93CF93DF93CDB7DEB7CA1BDB0B28
:100CC0000FB6F894DEBF0FBECDBF09942A883988CD
:100CD00048885F846E847D848C849B84AA84B984D4
:100CE000C884DF80EE80FD800C811B81AA81B981E0
:100CF000CE0FD11D0FB6F894DEBF0FBECDBFED01F4
:100D00000895EE0FFF1F0590F491E02D09940F93C5
:100D10001F93CF93DF938230910510F482E090E02F
:100D2000E091DF01F091E00130E020E0B0E0A0E0F0
:100D3000309799F42115310509F44AC0281B390B65
:100D400024303105D8F58A819B816115710589F1BF
:100D5000FB0193838283FE0111C040815181028196
:100D6000138148175907E0F04817590799F410976D
:100D700061F012960C93129713961C933296CF0142
:100D8000DF91CF911F910F9108950093DF01109390
:100D9000E001F4CF2115310551F04217530738F027
:100DA000A901DB019A01BD01DF01F801C1CFEF010B
:100DB000F9CF9093E0018093DF01CDCFFE01E20FE8
:100DC000F31F819391932250310939832883D7CF20
:100DD0002091DD013091DE01232B41F420910301AC
:100DE000309104013093DE012093DD012091010157
:100DF000309102012115310541F42DB73EB74091E4
:100E0000050150910601241B350BE091DD01F091A5
:100E1000DE01E217F307A0F42E1B3F0B281739075A
:100E200078F0AC014E5F5F4F2417350748F04E0F46
:100E30005F1F5093DE014093DD01819391939FCF1B
:100E4000F0E0E0E09CCFCF93DF930097E9F0FC0166
:100E5000329713821282A091DF01B091E001ED017F
:100E600030E020E01097A1F420813181820F931FA0
:100E70002091DD013091DE012817390709F061C0AA
:100E8000F093DE01E093DD01DF91CF910895EA0157
:100E9000CE17DF07E8F54A815B819E0141155105B8
:100EA000B1F7E901FB83EA8349915991C40FD51F3A
:100EB000EC17FD0761F4808191810296840F951FE4
:100EC000E90199838883828193819B838A83F0E0FF
:100ED000E0E012968D919C9113970097B9F52D91B2
:100EE0003C911197CD010296820F931F2091DD0155
:100EF0003091DE012817390739F6309751F51092F5
:100F0000E0011092DF01B093DE01A093DD01BCCFC0
:100F1000D383C28340815181840F951FC817D9079D
:100F200061F44E5F5F4F88819981480F591F51834B
:100F300040838A819B81938382832115310509F047
:100F4000B0CFF093E001E093DF019ECFFD01DC0123
:100F5000C0CF13821282D7CFB0E0A0E0E2EBF7E07F
:100F60000C944C068C01009751F4CB010E9487062B
:100F70008C01C801CDB7DEB7E0E10C946806FC0136
:100F8000E60FF71F9C0122503109E217F30708F41E
:100F90009DC0D901CD91DC911197C617D70798F064
:100FA000C530D10530F3CE0104978617970708F3B3
:100FB000C61BD70B2297C193D1936D937C93CF011E
:100FC0000E942307D6CF5B01AC1ABD0A4C018C0EE0
:100FD0009D1EA091DF01B091E001512C412CF12C1C
:100FE000E12C109731F58091DD019091DE0188159B
:100FF000990509F05CC04616570608F058C0809164
:10100000010190910201009741F48DB79EB7409184
:10101000050150910601841B950BE817F90708F0AC
:1010200055C0F093DE01E093DD01F9017183608327
:10103000A0CF8D919C91119712966C901297139658
:101040007C901397A815B90559F56C0142E0C40EC0
:10105000D11CCA14DB0420F1AC014A195B09DA0186
:101060001296159780F06282738251834083D90172
:101070006D937C93E114F10471F0D7011396FC9306
:10108000EE93129776CF22968C0F9D1FF9019183D4
:101090008083F301EFCFF093E001E093DF0169CFAC
:1010A0004816590608F42C017D01D3019ACFCB01D3
:1010B0000E9487067C01009749F0AE01B8010E94AA
:1010C0006908C8010E942307870153CF10E000E0A0
:1010D00050CFFB01DC0102C001900D924150504005
:1010E000D8F70895FB01DC018D9101908019011062
:1010F000D9F3990B0895FB01DC0101900D920020BA
:10110000E1F7089510E0CEE5D0E004C0FE010E94B2
:0E11100081062196CF35D107C9F7F894FFCF9D
:10111E00FF0000E101800000000000FC011C0149FD
:10112E00014902BA015801AC016F6E006F6666008C
:00000001FF
